{
  "_format": "hh-sol-artifact-1",
  "contractName": "JO2024",
  "sourceName": "contracts/JO2024.sol",
  "abi": [
    {
      "inputs": [],
      "stateMutability": "nonpayable",
      "type": "constructor"
    },
    {
      "anonymous": false,
      "inputs": [
        {
          "indexed": true,
          "internalType": "address",
          "name": "account",
          "type": "address"
        },
        {
          "indexed": true,
          "internalType": "address",
          "name": "operator",
          "type": "address"
        },
        {
          "indexed": false,
          "internalType": "bool",
          "name": "approved",
          "type": "bool"
        }
      ],
      "name": "ApprovalForAll",
      "type": "event"
    },
    {
      "anonymous": false,
      "inputs": [
        {
          "indexed": true,
          "internalType": "address",
          "name": "previousOwner",
          "type": "address"
        },
        {
          "indexed": true,
          "internalType": "address",
          "name": "newOwner",
          "type": "address"
        }
      ],
      "name": "OwnershipTransferred",
      "type": "event"
    },
    {
      "anonymous": false,
      "inputs": [
        {
          "indexed": false,
          "internalType": "address",
          "name": "account",
          "type": "address"
        }
      ],
      "name": "Paused",
      "type": "event"
    },
    {
      "anonymous": false,
      "inputs": [
        {
          "indexed": true,
          "internalType": "address",
          "name": "operator",
          "type": "address"
        },
        {
          "indexed": true,
          "internalType": "address",
          "name": "from",
          "type": "address"
        },
        {
          "indexed": true,
          "internalType": "address",
          "name": "to",
          "type": "address"
        },
        {
          "indexed": false,
          "internalType": "uint256[]",
          "name": "ids",
          "type": "uint256[]"
        },
        {
          "indexed": false,
          "internalType": "uint256[]",
          "name": "values",
          "type": "uint256[]"
        }
      ],
      "name": "TransferBatch",
      "type": "event"
    },
    {
      "anonymous": false,
      "inputs": [
        {
          "indexed": true,
          "internalType": "address",
          "name": "operator",
          "type": "address"
        },
        {
          "indexed": true,
          "internalType": "address",
          "name": "from",
          "type": "address"
        },
        {
          "indexed": true,
          "internalType": "address",
          "name": "to",
          "type": "address"
        },
        {
          "indexed": false,
          "internalType": "uint256",
          "name": "id",
          "type": "uint256"
        },
        {
          "indexed": false,
          "internalType": "uint256",
          "name": "value",
          "type": "uint256"
        }
      ],
      "name": "TransferSingle",
      "type": "event"
    },
    {
      "anonymous": false,
      "inputs": [
        {
          "indexed": false,
          "internalType": "string",
          "name": "value",
          "type": "string"
        },
        {
          "indexed": true,
          "internalType": "uint256",
          "name": "id",
          "type": "uint256"
        }
      ],
      "name": "URI",
      "type": "event"
    },
    {
      "anonymous": false,
      "inputs": [
        {
          "indexed": false,
          "internalType": "address",
          "name": "account",
          "type": "address"
        }
      ],
      "name": "Unpaused",
      "type": "event"
    },
    {
      "inputs": [
        {
          "internalType": "address",
          "name": "account",
          "type": "address"
        },
        {
          "internalType": "uint256",
          "name": "id",
          "type": "uint256"
        }
      ],
      "name": "balanceOf",
      "outputs": [
        {
          "internalType": "uint256",
          "name": "",
          "type": "uint256"
        }
      ],
      "stateMutability": "view",
      "type": "function"
    },
    {
      "inputs": [
        {
          "internalType": "address[]",
          "name": "accounts",
          "type": "address[]"
        },
        {
          "internalType": "uint256[]",
          "name": "ids",
          "type": "uint256[]"
        }
      ],
      "name": "balanceOfBatch",
      "outputs": [
        {
          "internalType": "uint256[]",
          "name": "",
          "type": "uint256[]"
        }
      ],
      "stateMutability": "view",
      "type": "function"
    },
    {
      "inputs": [
        {
          "internalType": "uint256",
          "name": "_Type",
          "type": "uint256"
        }
      ],
      "name": "burn",
      "outputs": [],
      "stateMutability": "nonpayable",
      "type": "function"
    },
    {
      "inputs": [
        {
          "internalType": "address",
          "name": "_from",
          "type": "address"
        }
      ],
      "name": "exchangeByContract",
      "outputs": [],
      "stateMutability": "nonpayable",
      "type": "function"
    },
    {
      "inputs": [],
      "name": "exchangeClose",
      "outputs": [],
      "stateMutability": "nonpayable",
      "type": "function"
    },
    {
      "inputs": [
        {
          "internalType": "address",
          "name": "_from",
          "type": "address"
        }
      ],
      "name": "exchangeFound",
      "outputs": [],
      "stateMutability": "nonpayable",
      "type": "function"
    },
    {
      "inputs": [
        {
          "internalType": "uint256",
          "name": "_TypeFrom",
          "type": "uint256"
        },
        {
          "internalType": "uint256",
          "name": "_TypeTo",
          "type": "uint256"
        },
        {
          "internalType": "uint256",
          "name": "_amount",
          "type": "uint256"
        }
      ],
      "name": "exchangeStart",
      "outputs": [],
      "stateMutability": "nonpayable",
      "type": "function"
    },
    {
      "inputs": [],
      "name": "exchangeState",
      "outputs": [
        {
          "internalType": "enum JO2024.ExchangeState",
          "name": "",
          "type": "uint8"
        }
      ],
      "stateMutability": "view",
      "type": "function"
    },
    {
      "inputs": [],
      "name": "getAmountBurn",
      "outputs": [
        {
          "internalType": "uint256",
          "name": "",
          "type": "uint256"
        }
      ],
      "stateMutability": "view",
      "type": "function"
    },
    {
      "inputs": [
        {
          "internalType": "uint256",
          "name": "_type",
          "type": "uint256"
        }
      ],
      "name": "getMinted",
      "outputs": [
        {
          "internalType": "uint256",
          "name": "",
          "type": "uint256"
        }
      ],
      "stateMutability": "view",
      "type": "function"
    },
    {
      "inputs": [
        {
          "internalType": "uint256",
          "name": "_type",
          "type": "uint256"
        }
      ],
      "name": "getSupply",
      "outputs": [
        {
          "internalType": "uint256",
          "name": "",
          "type": "uint256"
        }
      ],
      "stateMutability": "view",
      "type": "function"
    },
    {
      "inputs": [
        {
          "internalType": "address",
          "name": "account",
          "type": "address"
        },
        {
          "internalType": "address",
          "name": "operator",
          "type": "address"
        }
      ],
      "name": "isApprovedForAll",
      "outputs": [
        {
          "internalType": "bool",
          "name": "",
          "type": "bool"
        }
      ],
      "stateMutability": "view",
      "type": "function"
    },
    {
      "inputs": [
        {
          "internalType": "uint256",
          "name": "_Type",
          "type": "uint256"
        },
        {
          "internalType": "uint256",
          "name": "_amount",
          "type": "uint256"
        }
      ],
      "name": "mint",
      "outputs": [],
      "stateMutability": "nonpayable",
      "type": "function"
    },
    {
      "inputs": [],
      "name": "name",
      "outputs": [
        {
          "internalType": "string",
          "name": "",
          "type": "string"
        }
      ],
      "stateMutability": "pure",
      "type": "function"
    },
    {
      "inputs": [],
      "name": "owner",
      "outputs": [
        {
          "internalType": "address",
          "name": "",
          "type": "address"
        }
      ],
      "stateMutability": "view",
      "type": "function"
    },
    {
      "inputs": [],
      "name": "pause",
      "outputs": [],
      "stateMutability": "nonpayable",
      "type": "function"
    },
    {
      "inputs": [],
      "name": "paused",
      "outputs": [
        {
          "internalType": "bool",
          "name": "",
          "type": "bool"
        }
      ],
      "stateMutability": "view",
      "type": "function"
    },
    {
      "inputs": [],
      "name": "renounceOwnership",
      "outputs": [],
      "stateMutability": "nonpayable",
      "type": "function"
    },
    {
      "inputs": [
        {
          "internalType": "address",
          "name": "from",
          "type": "address"
        },
        {
          "internalType": "address",
          "name": "to",
          "type": "address"
        },
        {
          "internalType": "uint256[]",
          "name": "ids",
          "type": "uint256[]"
        },
        {
          "internalType": "uint256[]",
          "name": "amounts",
          "type": "uint256[]"
        },
        {
          "internalType": "bytes",
          "name": "data",
          "type": "bytes"
        }
      ],
      "name": "safeBatchTransferFrom",
      "outputs": [],
      "stateMutability": "nonpayable",
      "type": "function"
    },
    {
      "inputs": [
        {
          "internalType": "address",
          "name": "from",
          "type": "address"
        },
        {
          "internalType": "address",
          "name": "to",
          "type": "address"
        },
        {
          "internalType": "uint256",
          "name": "id",
          "type": "uint256"
        },
        {
          "internalType": "uint256",
          "name": "amount",
          "type": "uint256"
        },
        {
          "internalType": "bytes",
          "name": "data",
          "type": "bytes"
        }
      ],
      "name": "safeTransferFrom",
      "outputs": [],
      "stateMutability": "nonpayable",
      "type": "function"
    },
    {
      "inputs": [
        {
          "internalType": "uint256",
          "name": "_amount",
          "type": "uint256"
        }
      ],
      "name": "setAmountBurn",
      "outputs": [],
      "stateMutability": "nonpayable",
      "type": "function"
    },
    {
      "inputs": [
        {
          "internalType": "address",
          "name": "operator",
          "type": "address"
        },
        {
          "internalType": "bool",
          "name": "approved",
          "type": "bool"
        }
      ],
      "name": "setApprovalForAll",
      "outputs": [],
      "stateMutability": "nonpayable",
      "type": "function"
    },
    {
      "inputs": [
        {
          "internalType": "uint256",
          "name": "_Type",
          "type": "uint256"
        },
        {
          "internalType": "uint256",
          "name": "_amount",
          "type": "uint256"
        }
      ],
      "name": "setSupply",
      "outputs": [],
      "stateMutability": "nonpayable",
      "type": "function"
    },
    {
      "inputs": [
        {
          "internalType": "string",
          "name": "_uri",
          "type": "string"
        }
      ],
      "name": "setURI",
      "outputs": [],
      "stateMutability": "nonpayable",
      "type": "function"
    },
    {
      "inputs": [
        {
          "internalType": "bytes4",
          "name": "interfaceId",
          "type": "bytes4"
        }
      ],
      "name": "supportsInterface",
      "outputs": [
        {
          "internalType": "bool",
          "name": "",
          "type": "bool"
        }
      ],
      "stateMutability": "view",
      "type": "function"
    },
    {
      "inputs": [],
      "name": "symbol",
      "outputs": [
        {
          "internalType": "string",
          "name": "",
          "type": "string"
        }
      ],
      "stateMutability": "pure",
      "type": "function"
    },
    {
      "inputs": [
        {
          "internalType": "address",
          "name": "newOwner",
          "type": "address"
        }
      ],
      "name": "transferOwnership",
      "outputs": [],
      "stateMutability": "nonpayable",
      "type": "function"
    },
    {
      "inputs": [],
      "name": "unpause",
      "outputs": [],
      "stateMutability": "nonpayable",
      "type": "function"
    },
    {
      "inputs": [
        {
          "internalType": "uint256",
          "name": "",
          "type": "uint256"
        }
      ],
      "name": "uri",
      "outputs": [
        {
          "internalType": "string",
          "name": "",
          "type": "string"
        }
      ],
      "stateMutability": "view",
      "type": "function"
    }
  ],
  "bytecode": "0x60646004556101c0604052612710608081815260a082905260c082905260e08290526101009190915260016101208190526101408190526101608190526101808190526101a0526200005690600590600a6200017b565b506040805161014081018252600080825260208201819052918101829052606081018290526080810182905260a0810182905260c0810182905260e081018290526101008101829052610120810191909152620000b890600690600a620001d1565b50348015620000c657600080fd5b506040518060a001604052806062815260200162002e8460629139620000ec8162000108565b506003805460ff19169055620001023362000121565b620002e5565b80516200011d90600290602084019062000214565b5050565b600380546001600160a01b03838116610100818102610100600160a81b031985161790945560405193909204169182907f8be0079c531659141344cd1fd0a4f28419497f9722a3daafe3b4186f6b6457e090600090a35050565b828054828255906000526020600020908101928215620001bf579160200282015b82811115620001bf578251829061ffff169055916020019190600101906200019c565b50620001cd92915062000291565b5090565b828054828255906000526020600020908101928215620001bf579160200282015b82811115620001bf578251829060ff16905591602001919060010190620001f2565b8280546200022290620002a8565b90600052602060002090601f016020900481019282620002465760008555620001bf565b82601f106200026157805160ff1916838001178555620001bf565b82800160010185558215620001bf579182015b82811115620001bf57825182559160200191906001019062000274565b5b80821115620001cd576000815560010162000292565b600181811c90821680620002bd57607f821691505b60208210811415620002df57634e487b7160e01b600052602260045260246000fd5b50919050565b612b8f80620002f56000396000f3fe608060405234801561001057600080fd5b50600436106101ce5760003560e01c80636f655e3e11610104578063a22cb465116100a2578063f242432a11610071578063f242432a14610421578063f2fde38b14610434578063f77ee79d14610447578063fc784d491461045a57600080fd5b8063a22cb465146103ac578063a7e07c29146103bf578063c7843be1146103d2578063e985e9c5146103e557600080fd5b80638b489306116100de5780638b4893061461034a5780638da5cb5b1461035257806395d89b411461037b578063983c3d9a1461039957600080fd5b80636f655e3e14610332578063715018a61461033a5780638456cb591461034257600080fd5b80631b2ef1ca116101715780633f4ba83a1161014b5780633f4ba83a146102ec57806342966c68146102f45780634e1273f4146103075780635c975abb1461032757600080fd5b80631b2ef1ca146102b35780632eb2c2d6146102c657806335018441146102d957600080fd5b806306fdde03116101ad57806306fdde03146102315780630dd27120146102635780630e89341c1461028d5780631a9e379f146102a057600080fd5b8062fdd58e146101d357806301ffc9a7146101f957806302fe53051461021c575b600080fd5b6101e66101e136600461210a565b61046d565b6040519081526020015b60405180910390f35b61020c61020736600461214a565b610503565b60405190151581526020016101f0565b61022f61022a36600461220f565b610555565b005b60408051808201909152600d81526c4a4f203230323420506172697360981b60208201525b6040516101f091906122ad565b33600090815260076020526040902060030154600160a01b900460ff166040516101f091906122d6565b61025661029b3660046122fe565b610569565b6101e66102ae3660046122fe565b6105fd565b61022f6102c1366004612317565b610624565b61022f6102d43660046123ee565b6107ee565b61022f6102e7366004612498565b61083a565b61022f610990565b61022f6103023660046122fe565b6109a2565b61031a6103153660046124b3565b610b5b565b6040516101f091906125b9565b60035460ff1661020c565b61022f610c85565b61022f610dbf565b61022f610dd1565b6004546101e6565b60035461010090046001600160a01b03166040516001600160a01b0390911681526020016101f0565b6040805180820190915260028152614a4f60f01b6020820152610256565b61022f6103a73660046122fe565b610de1565b61022f6103ba3660046125cc565b610dee565b61022f6103cd366004612608565b610dfd565b61022f6103e0366004612498565b611053565b61020c6103f3366004612634565b6001600160a01b03918216600090815260016020908152604080832093909416825291909152205460ff1690565b61022f61042f366004612667565b611280565b61022f610442366004612498565b6112c5565b6101e66104553660046122fe565b61133b565b61022f610468366004612317565b611350565b60006001600160a01b0383166104dd5760405162461bcd60e51b815260206004820152602a60248201527f455243313135353a2061646472657373207a65726f206973206e6f742061207660448201526930b634b21037bbb732b960b11b60648201526084015b60405180910390fd5b506000908152602081815260408083206001600160a01b03949094168352929052205490565b60006001600160e01b03198216636cdb3d1360e11b148061053457506001600160e01b031982166303a24d0760e21b145b8061054f57506301ffc9a760e01b6001600160e01b03198316145b92915050565b61055d61137c565b610566816113dc565b50565b606060028054610578906126cc565b80601f01602080910402602001604051908101604052809291908181526020018280546105a4906126cc565b80156105f15780601f106105c6576101008083540402835291602001916105f1565b820191906000526020600020905b8154815290600101906020018083116105d457829003601f168201915b50505050509050919050565b60006006828154811061061257610612612707565b90600052602060002001549050919050565b61062c6113ef565b61066c6040518060400160405280601881526020017f6d696e74205f54797065202573205f616d6f756e7420257300000000000000008152508383611435565b60055461067b90600190612733565b8211156106bf5760405162461bcd60e51b815260206004820152601260248201527113919508191bd95cc81b9bdd08195e1a5cdd60721b60448201526064016104d4565b600582815481106106d2576106d2612707565b9060005260206000200154600683815481106106f0576106f0612707565b90600052602060002001546001610707919061274a565b11156107555760405162461bcd60e51b815260206004820152601c60248201527f416c6c20746865204e46542068617665206265656e206d696e7465640000000060448201526064016104d4565b600081116107915760405162461bcd60e51b81526020600482015260096024820152684d696e74205a65726f60b81b60448201526064016104d4565b6107b83383836040518060400160405280600381526020016203078360ec1b81525061147c565b80600683815481106107cc576107cc612707565b9060005260206000200160008282546107e5919061274a565b90915550505050565b6001600160a01b03851633148061080a575061080a85336103f3565b6108265760405162461bcd60e51b81526004016104d490612762565b6108338585858585611590565b5050505050565b6108796040518060400160405280601b81526020017f65786368616e67654279436f6e7472616374205f66726f6d20257300000000008152508261176d565b3330146108d45760405162461bcd60e51b8152602060048201526024808201527f4f6e6c7920636f6e7472616374206164647265737320636f756c642065786368604482015263616e676560e01b60648201526084016104d4565b6001600160a01b0381811660009081526007602090815260409182902060038082018054600160a11b60ff60a01b19821617909155825460029093015485518087019096529185526203078360ec1b93850193909352610938948694931692611280565b6001600160a01b03808216600090815260076020908152604091829020600380820154600183015460029093015485518087019096529185526203078360ec1b93850193909352610566949290921692859290611280565b61099861137c565b6109a06117b2565b565b6109e26040518060400160405280601b81526020017f6275726e206d73672e73656e646572202573205f5479706520257300000000008152503383611804565b6004811115610a335760405162461bcd60e51b815260206004820152601a60248201527f4e465420646f6573206e6f7420657869737420746f206275726e00000000000060448201526064016104d4565b600454610a40338361046d565b1015610a8e5760405162461bcd60e51b815260206004820152601d60248201527f4e6f204e4654547970652073756666696369656e7420746f206275726e00000060448201526064016104d4565b6005610a9a828261274a565b81548110610aaa57610aaa612707565b90600052602060002001546006826005610ac4919061274a565b81548110610ad457610ad4612707565b90600052602060002001546001610aeb919061274a565b1115610b395760405162461bcd60e51b815260206004820152601f60248201527f54686520756e69717565204e46542068617665206265656e206d696e7465640060448201526064016104d4565b610b46338260045461184b565b610566610b5482600561274a565b6001610624565b60608151835114610bc05760405162461bcd60e51b815260206004820152602960248201527f455243313135353a206163636f756e747320616e6420696473206c656e677468604482015268040dad2e6dac2e8c6d60bb1b60648201526084016104d4565b6000835167ffffffffffffffff811115610bdc57610bdc61216e565b604051908082528060200260200182016040528015610c05578160200160208202803683370190505b50905060005b8451811015610c7d57610c50858281518110610c2957610c29612707565b6020026020010151858381518110610c4357610c43612707565b602002602001015161046d565b828281518110610c6257610c62612707565b6020908102919091010152610c76816127b0565b9050610c0b565b509392505050565b610cc46040518060400160405280601b81526020017f65786368616e6765436c6f7365206d73672e73656e64657220257300000000008152503361176d565b33610d065760405162461bcd60e51b815260206004820152601260248201527141646472657373206e6f742076616c69646560701b60448201526064016104d4565b600233600090815260076020526040902060030154600160a01b900460ff166002811115610d3657610d366122c0565b14610d835760405162461bcd60e51b815260206004820152601560248201527f45786368616e6765206e6f7420746f20636c6f7365000000000000000000000060448201526064016104d4565b336000908152600760205260408120818155600181018290556002810182905560030180546001600160a81b03191690556109a0903090610dee565b610dc761137c565b6109a060006119c7565b610dd961137c565b6109a0611a2e565b610de961137c565b600455565b610df9338383611a6b565b5050565b610e21604051806060016040528060308152602001612b2a60309139848484611b4c565b60048311158015610e33575060048211155b610e7f5760405162461bcd60e51b815260206004820152601e60248201527f4e465420646f6573206e6f7420657869737420746f2065786368616e6765000060448201526064016104d4565b80610e8a338561046d565b1015610ea85760405162461bcd60e51b81526004016104d4906127cb565b81831415610ee65760405162461bcd60e51b815260206004820152600b60248201526a4e46547320657175616c7360a81b60448201526064016104d4565b60008111610f225760405162461bcd60e51b81526020600482015260096024820152684d696e74205a65726f60b81b60448201526064016104d4565b600233600090815260076020526040902060030154600160a01b900460ff166002811115610f5257610f526122c0565b1415610f945760405162461bcd60e51b815260206004820152601160248201527045786368616e676520746f20636c6f736560781b60448201526064016104d4565b6040805160a0810182528481526020810184905290810182905260006060820152608081016001905233600090815260076020908152604091829020835181559083015160018201559082015160028083019190915560608301516003830180546001600160a01b03929092166001600160a01b031983168117825560808601519391926001600160a81b0319161790600160a01b90849081111561103b5761103b6122c0565b021790555090505061104e306001610dee565b505050565b6110926040518060400160405280601681526020017f65786368616e6765466f756e64205f66726f6d202573000000000000000000008152508261176d565b6001600160a01b0381166110dd5760405162461bcd60e51b815260206004820152601260248201527141646472657373206e6f742076616c69646560701b60448201526064016104d4565b6001600160a01b0381166000908152600760205260409020600281015460019091015461110b90339061046d565b10156111685760405162461bcd60e51b815260206004820152602660248201527f496e73756666696369656e742062616c616e636520666f72207472616e73666560448201526572203a20746f60d01b60648201526084016104d4565b6001600160a01b03811660009081526007602052604090206002810154905461119290839061046d565b10156111b05760405162461bcd60e51b81526004016104d4906127cb565b60016001600160a01b038216600090815260076020526040902060030154600160a01b900460ff1660028111156111e9576111e96122c0565b146112365760405162461bcd60e51b815260206004820152601560248201527f45786368616e6765206e6f7420696e207374617274000000000000000000000060448201526064016104d4565b6001600160a01b038116600090815260076020526040902060030180546001600160a01b0319163317905561126c306001610dee565b61127581611b9b565b610566306000610dee565b6001600160a01b03851633148061129c575061129c85336103f3565b6112b85760405162461bcd60e51b81526004016104d490612762565b6108338585858585611c2f565b6112cd61137c565b6001600160a01b0381166113325760405162461bcd60e51b815260206004820152602660248201527f4f776e61626c653a206e6577206f776e657220697320746865207a65726f206160448201526564647265737360d01b60648201526084016104d4565b610566816119c7565b60006005828154811061061257610612612707565b61135861137c565b806005838154811061136c5761136c612707565b6000918252602090912001555050565b6003546001600160a01b036101009091041633146109a05760405162461bcd60e51b815260206004820181905260248201527f4f776e61626c653a2063616c6c6572206973206e6f7420746865206f776e657260448201526064016104d4565b8051610df9906002906020840190612055565b60035460ff16156109a05760405162461bcd60e51b815260206004820152601060248201526f14185d5cd8589b194e881c185d5cd95960821b60448201526064016104d4565b61104e83838360405160240161144d93929190612813565b60408051601f198184030181529190526020810180516001600160e01b031663ca47c4eb60e01b179052611d59565b6001600160a01b0384166114dc5760405162461bcd60e51b815260206004820152602160248201527f455243313135353a206d696e7420746f20746865207a65726f206164647265736044820152607360f81b60648201526084016104d4565b3360006114e885611d7a565b905060006114f585611d7a565b90506000868152602081815260408083206001600160a01b038b1684529091528120805487929061152790849061274a565b909155505060408051878152602081018790526001600160a01b03808a1692600092918716917fc3d58168c5ae7397731d063d5bbf3d657854427343f4c083240f7aacaa2d0f62910160405180910390a461158783600089898989611dc5565b50505050505050565b81518351146115f25760405162461bcd60e51b815260206004820152602860248201527f455243313135353a2069647320616e6420616d6f756e7473206c656e677468206044820152670dad2e6dac2e8c6d60c31b60648201526084016104d4565b6001600160a01b0384166116185760405162461bcd60e51b81526004016104d490612838565b3360005b84518110156116ff57600085828151811061163957611639612707565b60200260200101519050600085838151811061165757611657612707565b602090810291909101810151600084815280835260408082206001600160a01b038e1683529093529190912054909150818110156116a75760405162461bcd60e51b81526004016104d49061287d565b6000838152602081815260408083206001600160a01b038e8116855292528083208585039055908b168252812080548492906116e490849061274a565b92505081905550505050806116f8906127b0565b905061161c565b50846001600160a01b0316866001600160a01b0316826001600160a01b03167f4a39dc06d4c0dbc64b70af90fd698a233a518aa5d07e595d983b8c0526c8f7fb878760405161174f9291906128c7565b60405180910390a4611765818787878787611f39565b505050505050565b610df982826040516024016117839291906128f5565b60408051601f198184030181529190526020810180516001600160e01b031663319af33360e01b179052611d59565b6117ba612003565b6003805460ff191690557f5db9ee0a495bf2e6ff9c91a7834c1ba4fdd244a5e8aa4e537bd38aeae4b073aa335b6040516001600160a01b03909116815260200160405180910390a1565b61104e83838360405160240161181c93929190612920565b60408051601f198184030181529190526020810180516001600160e01b0316630d26b92560e01b179052611d59565b6001600160a01b0383166118ad5760405162461bcd60e51b815260206004820152602360248201527f455243313135353a206275726e2066726f6d20746865207a65726f206164647260448201526265737360e81b60648201526084016104d4565b3360006118b984611d7a565b905060006118c684611d7a565b60408051602080820183526000918290528882528181528282206001600160a01b038b168352905220549091508481101561194f5760405162461bcd60e51b8152602060048201526024808201527f455243313135353a206275726e20616d6f756e7420657863656564732062616c604482015263616e636560e01b60648201526084016104d4565b6000868152602081815260408083206001600160a01b038b81168086529184528285208a8703905582518b81529384018a90529092908816917fc3d58168c5ae7397731d063d5bbf3d657854427343f4c083240f7aacaa2d0f62910160405180910390a4604080516020810190915260009052611587565b600380546001600160a01b0383811661010081810274ffffffffffffffffffffffffffffffffffffffff001985161790945560405193909204169182907f8be0079c531659141344cd1fd0a4f28419497f9722a3daafe3b4186f6b6457e090600090a35050565b611a366113ef565b6003805460ff191660011790557f62e78cea01bee320cd4e420270b5ea74000d11b0c9f74754ebdbfc544b05a2586117e73390565b816001600160a01b0316836001600160a01b03161415611adf5760405162461bcd60e51b815260206004820152602960248201527f455243313135353a2073657474696e6720617070726f76616c20737461747573604482015268103337b91039b2b63360b91b60648201526084016104d4565b6001600160a01b03838116600081815260016020908152604080832094871680845294825291829020805460ff191686151590811790915591519182527f17307eab39ab6107e8899845ad3d59bd9653f200f220920489ca2b5937696c31910160405180910390a3505050565b611b9584848484604051602401611b66949392919061294e565b60408051601f198184030181529190526020810180516001600160e01b031663a7a8785360e01b179052611d59565b50505050565b611bda6040518060400160405280601f81526020017f65786368616e6765546f446f4279436f6e7472616374205f66726f6d202573008152508261176d565b604051633501844160e01b81526001600160a01b03821660048201523090633501844190602401600060405180830381600087803b158015611c1b57600080fd5b505af1158015610833573d6000803e3d6000fd5b6001600160a01b038416611c555760405162461bcd60e51b81526004016104d490612838565b336000611c6185611d7a565b90506000611c6e85611d7a565b90506000868152602081815260408083206001600160a01b038c16845290915290205485811015611cb15760405162461bcd60e51b81526004016104d49061287d565b6000878152602081815260408083206001600160a01b038d8116855292528083208985039055908a16825281208054889290611cee90849061274a565b909155505060408051888152602081018890526001600160a01b03808b16928c821692918816917fc3d58168c5ae7397731d063d5bbf3d657854427343f4c083240f7aacaa2d0f62910160405180910390a4611d4e848a8a8a8a8a611dc5565b505050505050505050565b80516a636f6e736f6c652e6c6f67602083016000808483855afa5050505050565b60408051600180825281830190925260609160009190602080830190803683370190505090508281600081518110611db457611db4612707565b602090810291909101015292915050565b6001600160a01b0384163b156117655760405163f23a6e6160e01b81526001600160a01b0385169063f23a6e6190611e09908990899088908890889060040161297d565b602060405180830381600087803b158015611e2357600080fd5b505af1925050508015611e53575060408051601f3d908101601f19168201909252611e50918101906129c0565b60015b611f0957611e5f6129dd565b806308c379a01415611e995750611e746129f9565b80611e7f5750611e9b565b8060405162461bcd60e51b81526004016104d491906122ad565b505b60405162461bcd60e51b815260206004820152603460248201527f455243313135353a207472616e7366657220746f206e6f6e2d4552433131353560448201527f526563656976657220696d706c656d656e74657200000000000000000000000060648201526084016104d4565b6001600160e01b0319811663f23a6e6160e01b146115875760405162461bcd60e51b81526004016104d490612a83565b6001600160a01b0384163b156117655760405163bc197c8160e01b81526001600160a01b0385169063bc197c8190611f7d9089908990889088908890600401612acb565b602060405180830381600087803b158015611f9757600080fd5b505af1925050508015611fc7575060408051601f3d908101601f19168201909252611fc4918101906129c0565b60015b611fd357611e5f6129dd565b6001600160e01b0319811663bc197c8160e01b146115875760405162461bcd60e51b81526004016104d490612a83565b60035460ff166109a05760405162461bcd60e51b815260206004820152601460248201527f5061757361626c653a206e6f742070617573656400000000000000000000000060448201526064016104d4565b828054612061906126cc565b90600052602060002090601f01602090048101928261208357600085556120c9565b82601f1061209c57805160ff19168380011785556120c9565b828001600101855582156120c9579182015b828111156120c95782518255916020019190600101906120ae565b506120d59291506120d9565b5090565b5b808211156120d557600081556001016120da565b80356001600160a01b038116811461210557600080fd5b919050565b6000806040838503121561211d57600080fd5b612126836120ee565b946020939093013593505050565b6001600160e01b03198116811461056657600080fd5b60006020828403121561215c57600080fd5b813561216781612134565b9392505050565b634e487b7160e01b600052604160045260246000fd5b601f8201601f1916810167ffffffffffffffff811182821017156121aa576121aa61216e565b6040525050565b600067ffffffffffffffff8311156121cb576121cb61216e565b6040516121e2601f8501601f191660200182612184565b8091508381528484840111156121f757600080fd5b83836020830137600060208583010152509392505050565b60006020828403121561222157600080fd5b813567ffffffffffffffff81111561223857600080fd5b8201601f8101841361224957600080fd5b612258848235602084016121b1565b949350505050565b6000815180845260005b818110156122865760208185018101518683018201520161226a565b81811115612298576000602083870101525b50601f01601f19169290920160200192915050565b6020815260006121676020830184612260565b634e487b7160e01b600052602160045260246000fd5b60208101600383106122f857634e487b7160e01b600052602160045260246000fd5b91905290565b60006020828403121561231057600080fd5b5035919050565b6000806040838503121561232a57600080fd5b50508035926020909101359150565b600067ffffffffffffffff8211156123535761235361216e565b5060051b60200190565b600082601f83011261236e57600080fd5b8135602061237b82612339565b6040516123888282612184565b83815260059390931b85018201928281019150868411156123a857600080fd5b8286015b848110156123c357803583529183019183016123ac565b509695505050505050565b600082601f8301126123df57600080fd5b612167838335602085016121b1565b600080600080600060a0868803121561240657600080fd5b61240f866120ee565b945061241d602087016120ee565b9350604086013567ffffffffffffffff8082111561243a57600080fd5b61244689838a0161235d565b9450606088013591508082111561245c57600080fd5b61246889838a0161235d565b9350608088013591508082111561247e57600080fd5b5061248b888289016123ce565b9150509295509295909350565b6000602082840312156124aa57600080fd5b612167826120ee565b600080604083850312156124c657600080fd5b823567ffffffffffffffff808211156124de57600080fd5b818501915085601f8301126124f257600080fd5b813560206124ff82612339565b60405161250c8282612184565b83815260059390931b850182019282810191508984111561252c57600080fd5b948201945b8386101561255157612542866120ee565b82529482019490820190612531565b9650508601359250508082111561256757600080fd5b506125748582860161235d565b9150509250929050565b600081518084526020808501945080840160005b838110156125ae57815187529582019590820190600101612592565b509495945050505050565b602081526000612167602083018461257e565b600080604083850312156125df57600080fd5b6125e8836120ee565b9150602083013580151581146125fd57600080fd5b809150509250929050565b60008060006060848603121561261d57600080fd5b505081359360208301359350604090920135919050565b6000806040838503121561264757600080fd5b612650836120ee565b915061265e602084016120ee565b90509250929050565b600080600080600060a0868803121561267f57600080fd5b612688866120ee565b9450612696602087016120ee565b93506040860135925060608601359150608086013567ffffffffffffffff8111156126c057600080fd5b61248b888289016123ce565b600181811c908216806126e057607f821691505b6020821081141561270157634e487b7160e01b600052602260045260246000fd5b50919050565b634e487b7160e01b600052603260045260246000fd5b634e487b7160e01b600052601160045260246000fd5b6000828210156127455761274561271d565b500390565b6000821982111561275d5761275d61271d565b500190565b6020808252602e908201527f455243313135353a2063616c6c6572206973206e6f7420746f6b656e206f776e60408201526d195c881bdc88185c1c1c9bdd995960921b606082015260800190565b60006000198214156127c4576127c461271d565b5060010190565b60208082526028908201527f496e73756666696369656e742062616c616e636520666f72207472616e73666560408201526772203a2066726f6d60c01b606082015260800190565b6060815260006128266060830186612260565b60208301949094525060400152919050565b60208082526025908201527f455243313135353a207472616e7366657220746f20746865207a65726f206164604082015264647265737360d81b606082015260800190565b6020808252602a908201527f455243313135353a20696e73756666696369656e742062616c616e636520666f60408201526939103a3930b739b332b960b11b606082015260800190565b6040815260006128da604083018561257e565b82810360208401526128ec818561257e565b95945050505050565b6040815260006129086040830185612260565b90506001600160a01b03831660208301529392505050565b6060815260006129336060830186612260565b6001600160a01b039490941660208301525060400152919050565b6080815260006129616080830187612260565b6020830195909552506040810192909252606090910152919050565b60006001600160a01b03808816835280871660208401525084604083015283606083015260a060808301526129b560a0830184612260565b979650505050505050565b6000602082840312156129d257600080fd5b815161216781612134565b600060033d11156129f65760046000803e5060005160e01c5b90565b600060443d1015612a075790565b6040516003193d81016004833e81513d67ffffffffffffffff8160248401118184111715612a3757505050505090565b8285019150815181811115612a4f5750505050505090565b843d8701016020828501011115612a695750505050505090565b612a7860208286010187612184565b509095945050505050565b60208082526028908201527f455243313135353a204552433131353552656365697665722072656a656374656040820152676420746f6b656e7360c01b606082015260800190565b60006001600160a01b03808816835280871660208401525060a06040830152612af760a083018661257e565b8281036060840152612b09818661257e565b90508281036080840152612b1d8185612260565b9897505050505050505056fe65786368616e67655374617274205f5479706546726f6d202573205f54797065546f202573205f616d6f756e74202573a2646970667358221220fcc89637d513ab85285e1756bc6c31433c6400401b33f430c0379a068045cf9264736f6c6343000809003368747470733a2f2f6e667473746f726167652e6c696e6b2f697066732f62616679626569653472686b3571626e6f673576627476627a6b36706379776561787567377368797172696e3668756d333278343276626c6c6b652f7b69647d2e6a736f6e",
  "linkReferences": {},
  "deployedLinkReferences": {}
}